:020000040800F2
:100000009806002089010008ED0A0008F50500089F
:10001000F9050008F90300083B1300080000000080
:100020000000000000000000000000008D0C00082F
:10003000FD03000800000000750B0008A10D00087A
:10004000A3010008A3010008A3010008A301000800
:10005000A3010008A3010008A3010008A3010008F0
:10006000A3010008A3010008A3010008A3010008E0
:10007000A3010008A3010008A3010008A3010008D0
:10008000A3010008A3010008A3010008A3010008C0
:10009000A3010008A3010008A3010008A3010008B0
:1000A000A3010008A3010008A3010008A3010008A0
:1000B000A3010008A3010008A3010008A301000890
:1000C000A3010008A3010008A3010008A301000880
:1000D000A30100084D110008A3010008A3010008B6
:1000E000A3010008A3010008A301000800F002F822
:1000F00000F03AF80AA090E8000C82448344AAF188
:100100000107DA4501D100F02FF8AFF2090EBAE885
:100110000F0013F0010F18BFFB1A43F0010318473B
:100120003412000054120000103A24BF78C878C17D
:10013000FAD8520724BF30C830C144BF04680C60ED
:10014000704700000023002400250026103A28BF35
:1001500078C1FBD8520728BF30C148BF0B60704739
:100160001FB51FBD10B510BD00F031F81146FFF7E7
:10017000F7FF01F0E4F800F04FF803B4FFF7F2FFE7
:1001800003BC00F055F800000948804709480047C3
:10019000FEE7FEE7FEE7FEE7FEE7FEE7FEE7FEE737
:1001A000FEE7FEE704480549054A064B7047000094
:1001B000A50D0008ED00000898000020980600201A
:1001C00098020020980200207047704770477546DB
:1001D00000F028F8AE4605006946534620F00700B7
:1001E000854618B020B5FFF7DDFFBDE820404FF091
:1001F00000064FF000074FF000084FF0000B21F011
:100200000701AC46ACE8C009ACE8C009ACE8C009DD
:10021000ACE8C0098D4670470446AFF30080204625
:10022000FFF7ABFF00487047340000207047000024
:1002300001491820ABBEFEE7260002000148007805
:10024000704700002C00002005480078012804D1E8
:10025000002003490870012070470020FCE70000DF
:100260002D00002010B500F001F810BD00B587B0DA
:100270000121042000F090FC0121880300F08CFC97
:100280004FF40070ADF8180018208DF81B00032003
:100290008DF81A0006A9214800F0D4F84FF48060C8
:1002A000ADF8180004208DF81B0003208DF81A000B
:1002B00006A91A4800F0C6F84FF416500290002024
:1002C000ADF814000C20ADF812000020ADF81000BD
:1002D000ADF80E00ADF80C0002A9114800F0BCFF0B
:1002E000012240F225510E4800F091FF4FF4A0602A
:1002F00000F036FC25208DF8040001208DF8070061
:100300008DF805008DF8060001A800F0F1FB012131
:10031000034800F046FF07B000BD000000080140A0
:100320000038014010B5FFF78FFF012803D1FFF718
:1003300085FF2F4908802F480088642802DD64204B
:100340002C4908802A480088303814284DD2DFE82C
:1003500000F00A0E13181D22272C31364C4C4C4C41
:100360004C4C4C3B4046002000F0DAFA3DE021487E
:10037000008800F0D5FA38E01E48008800F03EF909
:1003800033E01C48008800F03CFA2EE01948008851
:1003900000F089FA29E01748008800F047FA24E0C5
:1003A0001448008800F018FA1FE01248008800F096
:1003B000A4FA1AE00F48008800F060FA15E00D4832
:1003C000008800F046FA10E00A48008800F080FA41
:1003D0000BE0084800880A300649088005E0054817
:1003E00000880A380349088000BF00BF10BD000024
:1003F0002E0000203000002000BFFEE77047000004
:1004000010B56FF0040000F0B7FC0A4800680A4914
:10041000B0FBF1F0094908700846007800EB400194
:10042000C1EBC0104FF6FF7101EAC000044908801B
:1004300010BD00000000002000127A0028000020FB
:100440002A0000202DE9F041024600250026002068
:1004500000230024002791F803C00CF00F0591F849
:1004600003C00CF0100CBCF1000F03D091F802C0D7
:100470004CEA050591F800C0BCF1000F31D01468BA
:1004800000202BE04FF0010C0CFA00F3B1F800C093
:100490000CEA03069E4220D183004FF00F0C0CFAA9
:1004A00003F7BC4305FA03FC4CEA040491F803C0CB
:1004B000BCF1280F06D14FF0010C0CFA00FCC2F879
:1004C00014C00AE091F803C0BCF1480F05D14FF009
:1004D000010C0CFA00FCC2F810C0401C0828D1D353
:1004E0001460B1F800C0BCF1FF0F34DD5468002087
:1004F0002EE000F1080C4FF0010808FA0CF3B1F8F7
:1005000000C00CEA03069E4221D183004FF00F0C7D
:100510000CFA03F7BC4305FA03FC4CEA040491F817
:1005200003C0BCF1280F05D100F1080C08FA0CF843
:10053000C2F8148091F803C0BCF1480F07D100F154
:10054000080C4FF0010808FA0CF8C2F81080401CA3
:100550000828CED35460BDE8F0810000F0B50A460B
:10056000002300240021002500F00046B6F1004FD2
:1005700002D11D4EF16901E01B4E7168C0F30345C5
:1005800083B200F44016B6F5401F08D121F0706127
:10059000154E766826F07066134F7E6012E000F408
:1005A0008016B6F5801F06D1032606FA05F4A1438E
:1005B00041F0706106E0460D360103FA06F6B143DC
:1005C00041F0706122B1460D360103FA06F631435F
:1005D00000F00046B6F1004F02D1034EF16101E098
:1005E000014E7160F0BD00000000014041617047A4
:1005F0000161704700BFFEE700BFFEE710B504468B
:10060000604201B2012000F09FF9604201B2022075
:1006100000F09AF9604201B2032000F095F96042BF
:1006200001B2042000F090F910BD000000B589B0BF
:100630000121084600F0A0FA0121084600F09CFACA
:100640000121084600F098FA0121084600F094FACA
:100650000121402000F0A0FA0121042000F09CFAC2
:100660000121082000F098FA0121084600F094FAD0
:1006700001215448FFF772FF01215348FFF76EFF35
:100680004FF4FF40ADF8200010208DF82300032028
:100690008DF8220008A94D48FFF7D4FE4FF4004022
:1006A000ADF8200018208DF8230003208DF82200DB
:1006B00008A94748FFF7C6FE0820ADF8200018201B
:1006C0008DF8230008A94348FFF7BCFE0420ADF8CD
:1006D000200018208DF8230008A93D48FFF7B2FE3E
:1006E0000820ADF8200018208DF8230008A938480C
:1006F000FFF7A8FE4FF0804000F090FB4FF08040E5
:1007000000F08CFB4FF0804000F088FB4FF0804001
:1007100000F084FB0020ADF81A00ADF8160063204D
:10072000ADF8180040F2CF20ADF8140000208DF88D
:100730001C0005A94FF0804000F0B6FC05A94FF061
:10074000804000F0B1FC05A94FF0804000F0ACFC07
:1007500005A94FF0804000F0A7FC01A800F090FC34
:100760006020ADF804000020ADF80C000120ADF8C9
:1007700006000020ADF80A0001A94FF0804000F00B
:1007800053FB01A94FF0804000F09AFB01A94FF004
:10079000804000F0E7FB01A94FF0804000F032FC00
:1007A0000121880700F02EFB0121880700F02AFBB9
:1007B0000121880700F026FB0121880700F022FBB9
:1007C00009B000BD0001180000023000001801400F
:1007D00000080140000C014010B50446604201B21F
:1007E000012000F0B1F80021022000F0ADF8002156
:1007F000032000F0A9F8604201B2042000F0A4F840
:1008000010BD10B50446604201B2012000F09CF812
:1008100021B2022000F098F821B2032000F094F8F1
:10082000604201B2042000F08FF810BD10B50446FC
:100830000021012000F088F821B2022000F084F8A5
:1008400021B2032000F080F80021042000F07CF8A1
:1008500010BD10B50446604201B2012000F074F8EA
:1008600021B2022000F070F8604201B2032000F0D3
:100870006BF821B2042000F067F810BD10B50446F3
:100880000021012000F060F8604201B2022000F077
:100890005BF8604201B2032000F056F8002104200A
:1008A00000F052F810BD10B5044621B2012000F04E
:1008B0004BF8604201B2022000F046F8604201B2FB
:1008C000032000F041F821B2042000F03DF810BDF3
:1008D00010B5044621B2012000F036F8604201B2A2
:1008E000022000F031F821B2032000F02DF8604220
:1008F00001B2042000F028F810BD10B5044621B262
:10090000012000F021F80021022000F01DF8002154
:10091000032000F019F821B2042000F015F810BDF2
:1009200010B5044621B2012000F00EF821B20220D9
:1009300000F00AF821B2032000F006F821B20420EA
:1009400000F002F810BD000070B505460E463446B2
:10095000012D06D0022D32D0032D61D0042D2DD1D2
:100960008FE0002C0EDD4FF480715F48FFF740FEF2
:1009700080215D48FFF73AFEA1B24FF0804000F0C1
:1009800089FB1BE0002C10DA80215748FFF730FE6E
:100990004FF480715448FFF729FE604204B2A1B2BF
:1009A0004FF0804000F076FB08E080214E48FFF7D2
:1009B0001DFE4FF480714C48FFF718FE92E0002CAA
:1009C0000FDD4FF400714848FFF712FE4FF48061CD
:1009D0004548FFF70BFEA1B24FF0804000F05CFBF2
:1009E0001DE0002C11DA4FF480613F48FFF700FE54
:1009F0004FF400713C48FFF7F9FD604204B2A1B228
:100A00004FF0804000F048FB09E04FF40071364899
:100A1000FFF7ECFD4FF480613348FFF7E7FD61E03D
:100A2000002C0FDD4FF480512F48FFF7E1FD4FF40C
:100A300000612D48FFF7DAFDA1B24FF0804000F0D1
:100A40002DFB1DE0002C11DA4FF400612648FFF762
:100A5000CFFD4FF480512448FFF7C8FD604204B237
:100A6000A1B24FF0804000F019FB09E04FF40061A3
:100A70001D48FFF7BBFD4FF480511B48FFF7B6FD43
:100A800030E0002C0FDD4FF400511748FFF7B0FDA8
:100A90004FF480411448FFF7A9FDA1B24FF0804008
:100AA00000F0FEFA1DE0002C11DA4FF480410E48F0
:100AB000FFF79EFD4FF400510B48FFF797FD604292
:100AC00004B2A1B24FF0804000F0EAFA09E04FF41E
:100AD00000510548FFF78AFD4FF480410248FFF7B7
:100AE00085FD00BF00BF70BD0018014070470000C9
:100AF00070B5002100230F22C47804B3154C24687C
:100B000004F4E064C4F5E064210AC1F10403CA40BE
:100B1000447804FA03F184781440214309010E4C0F
:100B20000678A155047804F01F050124AC4005782F
:100B30006D11AD0005F1E025C5F8004109E004782C
:100B400004F01F050124AC40044D0678761145F8E9
:100B5000264070BD0CED00E000E400E080E100E024
:100B600002490143024A1160704700000000FA0583
:100B70000CED00E07047000029B1064AD26902433B
:100B8000044BDA6104E0034AD2698243014BDA6123
:100B9000704700000010024029B1064A92690243E2
:100BA000044B9A6104E0034A92698243014B9A61C3
:100BB000704700000010024030B5002100220024E0
:100BC00000232D4D6D6805F00C0121B1042905D0DD
:100BD000082923D105E0294D056022E0274D056055
:100BE0001FE0254D6D6805F47012234D6D6805F406
:100BF0008034022505EB92421CB9214D5543056016
:100C00000BE01D4D6D6805F400351DB11C4D5543BD
:100C1000056002E0194D5543056002E0174D05607F
:100C200000BF00BF144D6D6805F0F0010909154DB6
:100C30006B5C0568DD4045600F4D6D6805F4E06153
:100C4000090A104D6B5C4568DD4085600A4D6D6892
:100C500005F46051C90A0B4D6B5C4568DD40C56009
:100C6000054D6D6805F44041890B074D6B5CC56807
:100C7000B5FBF3F5056130BD0010024000127A00AB
:100C800000093D001400002024000020704710B52A
:100C900000F002F810BD00000CB50020019000909B
:100CA0003348006840F480303149086000BF304864
:100CB000006800F4003000900198401C01900098FA
:100CC00018B90198B0F5A06FF1D12948006800F477
:100CD000003010B10120009001E000200090009849
:100CE000012843D12348006840F0100021490860E2
:100CF0000846006820F0030008600846006840F0DD
:100D0000020008601A48406819494860084640686F
:100D100048600846406840F4806048600846406883
:100D200020F47C1048600846406840F4E8104860B1
:100D30000846006840F08070086000BF0C480068FA
:100D400000F000700028F9D00948406820F0030046
:100D5000074948600846406840F00200486000BF0C
:100D60000348406800F00C000828F9D10CBD0000D1
:100D70000010024000200240042808D14FF0E0217A
:100D8000096941F004014FF0E022116107E04FF0E2
:100D9000E021096921F004014FF0E0221161704760
:100DA0007047000010B51348006840F00100114979
:100DB000086008464068104908400E4948600846E7
:100DC00000680E4908400B4908600846006820F496
:100DD000802008600846406820F4FE0048604FF418
:100DE0001F008860FFF753FF4FF000600449086060
:100DF00010BD0000001002400000FFF8FFFFF6FEEB
:100E000008ED00E021B1028842F00102028004E016
:100E100002884FF6FE731A400280704701894FF630
:100E2000F87211400181704770B500240022002340
:100E3000058C4FF6FE7635400584028C8388048B42
:100E40004FF68F752C40B51E2C400D882C43751E17
:100E50002A400D892A434D882A43144DA8420BD0BD
:100E6000134DA84208D0134DA84205D0124DA842F8
:100E700002D0124DA84213D14FF6F7752A404D8982
:100E80002A434FF6FB752A408D882A434FF6FF65AB
:100E90002B404FF6FF552B408D892B43CD892B439B
:100EA00083800483CD888586028470BD002C014038
:100EB000003401400040014000440140004801402E
:100EC00070B5002400220023058C4FF6EF763540E4
:100ED0000584028C8388048B48F6FF752C404FF6FE
:100EE000FF452C400D884FF6FF7606EA05252C437A
:100EF0004FF6DF752A400D8906EA05152A434D880D
:100F000006EA05152A43154DA84202D0144DA84201
:100F10001DD14FF67F752A404D894FF6FF7606EAC0
:100F200005152A434FF6BF752A408D8806EA051538
:100F30002A434FF6FF352B404FF2FF752B408D892A
:100F400006EA85052B43CD8906EA85052B43838078
:100F50000483CD880587028470BD0000002C014009
:100F60000034014070B5002400220023058C4FF6A8
:100F7000FF6635400584028C8388848B4FF68F751D
:100F80002C404FF6FC752C400D882C434FF6FF5536
:100F90002A400D894FF6FF7606EA05252A434D883B
:100FA00006EA05252A43154DA84202D0144DA84251
:100FB0001DD14FF2FF752A404D894FF6FF7606EAA4
:100FC00005252A434FF6FF352A408D8806EA052578
:100FD0002A434EF6FF752B404DF6FF752B408D8949
:100FE00006EA05152B43CD8906EA05152B438380B8
:100FF0008483CD888587028470BD0000002C014069
:101000000034014070B5002200230024058C4EF608
:10101000FF7635400584038C8488828B48F6FF7503
:101020002A404FF6FF452A400D884FF6FF7606EA24
:1010300005252A434DF6FF752B400D8906EA053537
:101040002B434D8806EA05352B430B4DA84202D0B1
:101050000A4DA84208D14BF6FF752C408D894FF6FA
:10106000FF7606EA85152C4384808283CD88A0F81C
:101070004050038470BD0000002C0140003401404A
:101080000021018041808180C18001814181818175
:10109000C18170478186704701877047818770479B
:1010A000A0F8401070470000002202881D4B9842B3
:1010B0000ED01D4B98420BD0B0F1804F08D01B4B87
:1010C000984205D01A4B984202D01A4B984204D14C
:1010D0004FF68F731A404B881A43174B984207D02C
:1010E000164B984204D04FF6FF431A40CB881A4360
:1010F00002808B8883850B8803850A4B98420BD02E
:10110000094B984208D00E4B984205D00D4B98429F
:1011100002D00D4B984201D10B7A038601238382C2
:1011200070470000002C01400034014000040040E2
:1011300000080040000C0040001000400014004077
:1011400000400140004401400048014010B540F219
:101150002551094800F031F801280BD1064800F06C
:10116000E7F8064908700120054908702021024867
:1011700000F008F810BD0000003801402C000020ED
:101180002D00002010B50022002340F66A14A14271
:1011900000D100BF0A1201249440A3B2DC430480B2
:1011A00010BD21B1828942F40052828104E082891B
:1011B0004DF6FF731A408281704770B502460024D5
:1011C00000230025002040F66A16B14200D100BF7E
:1011D000C1F3421501F01F03012606FA03F3012DA6
:1011E00002D19689334006E0022D02D1168A33409F
:1011F00001E0968A33400C12012606FA04F41688A0
:10120000344013B10CB1012000E0002070BDF0B5F6
:101210000346002400260025002040F66A17B94244
:1012200000D100BF1846C1F3421401F01F06012788
:1012300007FA06F5012C01D10C3004E0022C01D193
:10124000103000E014301AB107682F43076002E045
:101250000768AF430760F0BD2DE9F04786B005464B
:101260000E460024A24600BFA1460027B08900B167
:1012700000BF2F462C8A4CF6FF700440F0880443D0
:101280002C82AC894EF6F3100440B08831890843B3
:10129000718908430443AC81AC8A4FF6FF40044097
:1012A000B0890443AC8201A8FFF786FC1F4887423F
:1012B00002D1DDF810A001E0DDF80CA0A88900F44F
:1012C000004040B10AEBCA0000EB0A103168490047
:1012D000B0FBF1F807E00AEBCA0000EB0A10316836
:1012E0008900B0FBF1F86420B8FBF0F0040120099C
:1012F000642101FB1089A88900F4004040B132202C
:1013000000EBC900B0FBF1F000F00700044308E077
:10131000322000EB09106421B0FBF1F000F00F0067
:1013200004432C8106B0BDE8F0870000003801407E
:1013300001468888C0F30800704700BFFEE7FFF74A
:101340005FF8FEF78FFFFFF771F901E0FEF7EAFFA4
:10135000FCE70000741300080000002034000000C7
:1013600028010008A81300083400002064060000CB
:101370004401000800A24A04000000000000000030
:10138000010203040607080900000000010203042B
:101390000102030406070809020406080000000011
:0813A000000000001E00000027
:04000005080000ED02
:00000001FF
